{
  "_format": "hh-sol-artifact-1",
  "contractName": "Inventory",
  "sourceName": "contracts/Inventory.sol",
  "abi": [
    {
      "anonymous": false,
      "inputs": [
        {
          "indexed": false,
          "internalType": "string",
          "name": "id",
          "type": "string"
        },
        {
          "indexed": false,
          "internalType": "uint256",
          "name": "newPrice",
          "type": "uint256"
        }
      ],
      "name": "PriceUpdated",
      "type": "event"
    },
    {
      "anonymous": false,
      "inputs": [
        {
          "indexed": false,
          "internalType": "string",
          "name": "id",
          "type": "string"
        },
        {
          "indexed": false,
          "internalType": "address",
          "name": "owner",
          "type": "address"
        },
        {
          "indexed": false,
          "internalType": "string",
          "name": "name",
          "type": "string"
        }
      ],
      "name": "ProductAdded",
      "type": "event"
    },
    {
      "anonymous": false,
      "inputs": [
        {
          "indexed": false,
          "internalType": "string",
          "name": "id",
          "type": "string"
        }
      ],
      "name": "ProductDiscontinued",
      "type": "event"
    },
    {
      "anonymous": false,
      "inputs": [
        {
          "indexed": false,
          "internalType": "string",
          "name": "id",
          "type": "string"
        },
        {
          "indexed": false,
          "internalType": "uint256",
          "name": "newQuantity",
          "type": "uint256"
        }
      ],
      "name": "StockUpdated",
      "type": "event"
    },
    {
      "inputs": [
        {
          "internalType": "string",
          "name": "_id",
          "type": "string"
        },
        {
          "internalType": "string",
          "name": "_name",
          "type": "string"
        },
        {
          "internalType": "string",
          "name": "_sku",
          "type": "string"
        },
        {
          "internalType": "uint256",
          "name": "_quantity",
          "type": "uint256"
        },
        {
          "internalType": "uint256",
          "name": "_unitPrice",
          "type": "uint256"
        },
        {
          "internalType": "string",
          "name": "_category",
          "type": "string"
        }
      ],
      "name": "addProduct",
      "outputs": [],
      "stateMutability": "nonpayable",
      "type": "function"
    },
    {
      "inputs": [
        {
          "internalType": "string",
          "name": "_id",
          "type": "string"
        }
      ],
      "name": "discontinueProduct",
      "outputs": [],
      "stateMutability": "nonpayable",
      "type": "function"
    },
    {
      "inputs": [
        {
          "internalType": "uint256",
          "name": "_threshold",
          "type": "uint256"
        }
      ],
      "name": "getLowStock",
      "outputs": [
        {
          "components": [
            {
              "internalType": "string",
              "name": "id",
              "type": "string"
            },
            {
              "internalType": "address",
              "name": "owner",
              "type": "address"
            },
            {
              "internalType": "string",
              "name": "name",
              "type": "string"
            },
            {
              "internalType": "string",
              "name": "sku",
              "type": "string"
            },
            {
              "internalType": "uint256",
              "name": "quantity",
              "type": "uint256"
            },
            {
              "internalType": "uint256",
              "name": "unitPrice",
              "type": "uint256"
            },
            {
              "internalType": "string",
              "name": "category",
              "type": "string"
            },
            {
              "internalType": "bool",
              "name": "isActive",
              "type": "bool"
            }
          ],
          "internalType": "struct Inventory.Product[]",
          "name": "",
          "type": "tuple[]"
        }
      ],
      "stateMutability": "view",
      "type": "function"
    },
    {
      "inputs": [
        {
          "internalType": "string",
          "name": "_id",
          "type": "string"
        }
      ],
      "name": "getProduct",
      "outputs": [
        {
          "components": [
            {
              "internalType": "string",
              "name": "id",
              "type": "string"
            },
            {
              "internalType": "address",
              "name": "owner",
              "type": "address"
            },
            {
              "internalType": "string",
              "name": "name",
              "type": "string"
            },
            {
              "internalType": "string",
              "name": "sku",
              "type": "string"
            },
            {
              "internalType": "uint256",
              "name": "quantity",
              "type": "uint256"
            },
            {
              "internalType": "uint256",
              "name": "unitPrice",
              "type": "uint256"
            },
            {
              "internalType": "string",
              "name": "category",
              "type": "string"
            },
            {
              "internalType": "bool",
              "name": "isActive",
              "type": "bool"
            }
          ],
          "internalType": "struct Inventory.Product",
          "name": "",
          "type": "tuple"
        }
      ],
      "stateMutability": "view",
      "type": "function"
    },
    {
      "inputs": [],
      "name": "getTotalValue",
      "outputs": [
        {
          "internalType": "uint256",
          "name": "",
          "type": "uint256"
        }
      ],
      "stateMutability": "view",
      "type": "function"
    },
    {
      "inputs": [],
      "name": "listProducts",
      "outputs": [
        {
          "components": [
            {
              "internalType": "string",
              "name": "id",
              "type": "string"
            },
            {
              "internalType": "address",
              "name": "owner",
              "type": "address"
            },
            {
              "internalType": "string",
              "name": "name",
              "type": "string"
            },
            {
              "internalType": "string",
              "name": "sku",
              "type": "string"
            },
            {
              "internalType": "uint256",
              "name": "quantity",
              "type": "uint256"
            },
            {
              "internalType": "uint256",
              "name": "unitPrice",
              "type": "uint256"
            },
            {
              "internalType": "string",
              "name": "category",
              "type": "string"
            },
            {
              "internalType": "bool",
              "name": "isActive",
              "type": "bool"
            }
          ],
          "internalType": "struct Inventory.Product[]",
          "name": "",
          "type": "tuple[]"
        }
      ],
      "stateMutability": "view",
      "type": "function"
    },
    {
      "inputs": [
        {
          "internalType": "uint256",
          "name": "",
          "type": "uint256"
        }
      ],
      "name": "productIds",
      "outputs": [
        {
          "internalType": "string",
          "name": "",
          "type": "string"
        }
      ],
      "stateMutability": "view",
      "type": "function"
    },
    {
      "inputs": [
        {
          "internalType": "string",
          "name": "",
          "type": "string"
        }
      ],
      "name": "products",
      "outputs": [
        {
          "internalType": "string",
          "name": "id",
          "type": "string"
        },
        {
          "internalType": "address",
          "name": "owner",
          "type": "address"
        },
        {
          "internalType": "string",
          "name": "name",
          "type": "string"
        },
        {
          "internalType": "string",
          "name": "sku",
          "type": "string"
        },
        {
          "internalType": "uint256",
          "name": "quantity",
          "type": "uint256"
        },
        {
          "internalType": "uint256",
          "name": "unitPrice",
          "type": "uint256"
        },
        {
          "internalType": "string",
          "name": "category",
          "type": "string"
        },
        {
          "internalType": "bool",
          "name": "isActive",
          "type": "bool"
        }
      ],
      "stateMutability": "view",
      "type": "function"
    },
    {
      "inputs": [
        {
          "internalType": "string",
          "name": "_id",
          "type": "string"
        },
        {
          "internalType": "uint256",
          "name": "_newPrice",
          "type": "uint256"
        }
      ],
      "name": "updatePrice",
      "outputs": [],
      "stateMutability": "nonpayable",
      "type": "function"
    },
    {
      "inputs": [
        {
          "internalType": "string",
          "name": "_id",
          "type": "string"
        },
        {
          "internalType": "uint256",
          "name": "_quantityChange",
          "type": "uint256"
        },
        {
          "internalType": "bool",
          "name": "_isAddition",
          "type": "bool"
        }
      ],
      "name": "updateStock",
      "outputs": [],
      "stateMutability": "nonpayable",
      "type": "function"
    }
  ],
  "bytecode": "0x6080604052348015600f57600080fd5b50612b878061001f6000396000f3fe608060405234801561001057600080fd5b506004361061009e5760003560e01c80639f229d88116100665780639f229d8814610160578063a08b301714610190578063caa648b4146101ac578063cb51bba9146101ca578063f3140d58146101fa5761009e565b80630186a423146100a357806325164f57146100da5780634a432a46146100f657806368111cce1461011257806389bb9b0014610142575b600080fd5b6100bd60048036038101906100b89190611c3d565b610216565b6040516100d1989796959493929190611d7a565b60405180910390f35b6100f460048036038101906100ef9190611c3d565b6104c1565b005b610110600480360381019061010b9190611e40565b6105e5565b005b61012c60048036038101906101279190611c3d565b610767565b6040516101399190611fd8565b60405180910390f35b61014a610b1d565b6040516101579190612181565b60405180910390f35b61017a600480360381019061017591906121a3565b610ed3565b6040516101879190612181565b60405180910390f35b6101aa60048036038101906101a591906121d0565b6113fa565b005b6101b4611669565b6040516101c191906122cd565b60405180910390f35b6101e460048036038101906101df91906121a3565b61177c565b6040516101f191906122e8565b60405180910390f35b610214600480360381019061020f9190612336565b611828565b005b60008180516020810182018051848252602083016020850120818352809550505050505060009150905080600001805461024f906123d4565b80601f016020809104026020016040519081016040528092919081815260200182805461027b906123d4565b80156102c85780601f1061029d576101008083540402835291602001916102c8565b820191906000526020600020905b8154815290600101906020018083116102ab57829003601f168201915b5050505050908060010160009054906101000a900473ffffffffffffffffffffffffffffffffffffffff1690806002018054610303906123d4565b80601f016020809104026020016040519081016040528092919081815260200182805461032f906123d4565b801561037c5780601f106103515761010080835404028352916020019161037c565b820191906000526020600020905b81548152906001019060200180831161035f57829003601f168201915b505050505090806003018054610391906123d4565b80601f01602080910402602001604051908101604052809291908181526020018280546103bd906123d4565b801561040a5780601f106103df5761010080835404028352916020019161040a565b820191906000526020600020905b8154815290600101906020018083116103ed57829003601f168201915b50505050509080600401549080600501549080600601805461042b906123d4565b80601f0160208091040260200160405190810160405280929190818152602001828054610457906123d4565b80156104a45780601f10610479576101008083540402835291602001916104a4565b820191906000526020600020905b81548152906001019060200180831161048757829003601f168201915b5050505050908060070160009054906101000a900460ff16905088565b803373ffffffffffffffffffffffffffffffffffffffff166000826040516104e99190612441565b908152602001604051809103902060010160009054906101000a900473ffffffffffffffffffffffffffffffffffffffff1673ffffffffffffffffffffffffffffffffffffffff1614610571576040517f08c379a0000000000000000000000000000000000000000000000000000000008152600401610568906124a4565b60405180910390fd5b600080836040516105829190612441565b908152602001604051809103902060070160006101000a81548160ff0219169083151502179055507f413deee4000f1324015b7792f0fe01e105cd34dc044b95d71cfd7ea0c749e462826040516105d991906122e8565b60405180910390a15050565b813373ffffffffffffffffffffffffffffffffffffffff1660008260405161060d9190612441565b908152602001604051809103902060010160009054906101000a900473ffffffffffffffffffffffffffffffffffffffff1673ffffffffffffffffffffffffffffffffffffffff1614610695576040517f08c379a000000000000000000000000000000000000000000000000000000000815260040161068c906124a4565b60405180910390fd5b6000836040516106a59190612441565b908152602001604051809103902060070160009054906101000a900460ff16610703576040517f08c379a00000000000000000000000000000000000000000000000000000000081526004016106fa90612510565b60405180910390fd5b816000846040516107149190612441565b9081526020016040518091039020600501819055507f159e83f4712ba2552e68be9d848e49bf6dd35c24f19564ffd523b6549450a2f4838360405161075a929190612530565b60405180910390a1505050565b61076f611a86565b600073ffffffffffffffffffffffffffffffffffffffff166000836040516107979190612441565b908152602001604051809103902060010160009054906101000a900473ffffffffffffffffffffffffffffffffffffffff1673ffffffffffffffffffffffffffffffffffffffff160361081f576040517f08c379a0000000000000000000000000000000000000000000000000000000008152600401610816906125ac565b60405180910390fd5b60008260405161082f9190612441565b908152602001604051809103902060405180610100016040529081600082018054610859906123d4565b80601f0160208091040260200160405190810160405280929190818152602001828054610885906123d4565b80156108d25780601f106108a7576101008083540402835291602001916108d2565b820191906000526020600020905b8154815290600101906020018083116108b557829003601f168201915b505050505081526020016001820160009054906101000a900473ffffffffffffffffffffffffffffffffffffffff1673ffffffffffffffffffffffffffffffffffffffff1673ffffffffffffffffffffffffffffffffffffffff168152602001600282018054610941906123d4565b80601f016020809104026020016040519081016040528092919081815260200182805461096d906123d4565b80156109ba5780601f1061098f576101008083540402835291602001916109ba565b820191906000526020600020905b81548152906001019060200180831161099d57829003601f168201915b505050505081526020016003820180546109d3906123d4565b80601f01602080910402602001604051908101604052809291908181526020018280546109ff906123d4565b8015610a4c5780601f10610a2157610100808354040283529160200191610a4c565b820191906000526020600020905b815481529060010190602001808311610a2f57829003601f168201915b505050505081526020016004820154815260200160058201548152602001600682018054610a79906123d4565b80601f0160208091040260200160405190810160405280929190818152602001828054610aa5906123d4565b8015610af25780601f10610ac757610100808354040283529160200191610af2565b820191906000526020600020905b815481529060010190602001808311610ad557829003601f168201915b505050505081526020016007820160009054906101000a900460ff1615151515815250509050919050565b6060600060018054905067ffffffffffffffff811115610b4057610b3f611b12565b5b604051908082528060200260200182016040528015610b7957816020015b610b66611a86565b815260200190600190039081610b5e5790505b50905060005b600180549050811015610ecb57600060018281548110610ba257610ba16125cc565b5b90600052602060002001604051610bb99190612693565b908152602001604051809103902060405180610100016040529081600082018054610be3906123d4565b80601f0160208091040260200160405190810160405280929190818152602001828054610c0f906123d4565b8015610c5c5780601f10610c3157610100808354040283529160200191610c5c565b820191906000526020600020905b815481529060010190602001808311610c3f57829003601f168201915b505050505081526020016001820160009054906101000a900473ffffffffffffffffffffffffffffffffffffffff1673ffffffffffffffffffffffffffffffffffffffff1673ffffffffffffffffffffffffffffffffffffffff168152602001600282018054610ccb906123d4565b80601f0160208091040260200160405190810160405280929190818152602001828054610cf7906123d4565b8015610d445780601f10610d1957610100808354040283529160200191610d44565b820191906000526020600020905b815481529060010190602001808311610d2757829003601f168201915b50505050508152602001600382018054610d5d906123d4565b80601f0160208091040260200160405190810160405280929190818152602001828054610d89906123d4565b8015610dd65780601f10610dab57610100808354040283529160200191610dd6565b820191906000526020600020905b815481529060010190602001808311610db957829003601f168201915b505050505081526020016004820154815260200160058201548152602001600682018054610e03906123d4565b80601f0160208091040260200160405190810160405280929190818152602001828054610e2f906123d4565b8015610e7c5780601f10610e5157610100808354040283529160200191610e7c565b820191906000526020600020905b815481529060010190602001808311610e5f57829003601f168201915b505050505081526020016007820160009054906101000a900460ff161515151581525050828281518110610eb357610eb26125cc565b5b60200260200101819052508080600101915050610b7f565b508091505090565b60606000805b600180549050811015610f9c5783600060018381548110610efd57610efc6125cc565b5b90600052602060002001604051610f149190612693565b908152602001604051809103902060040154108015610f7b5750600060018281548110610f4457610f436125cc565b5b90600052602060002001604051610f5b9190612693565b908152602001604051809103902060070160009054906101000a900460ff165b15610f8f578180610f8b906126d9565b9250505b8080600101915050610ed9565b5060008167ffffffffffffffff811115610fb957610fb8611b12565b5b604051908082528060200260200182016040528015610ff257816020015b610fdf611a86565b815260200190600190039081610fd75790505b5090506000805b6001805490508110156113ee578560006001838154811061101d5761101c6125cc565b5b906000526020600020016040516110349190612693565b90815260200160405180910390206004015410801561109b5750600060018281548110611064576110636125cc565b5b9060005260206000200160405161107b9190612693565b908152602001604051809103902060070160009054906101000a900460ff165b156113e1576000600182815481106110b6576110b56125cc565b5b906000526020600020016040516110cd9190612693565b9081526020016040518091039020604051806101000160405290816000820180546110f7906123d4565b80601f0160208091040260200160405190810160405280929190818152602001828054611123906123d4565b80156111705780601f1061114557610100808354040283529160200191611170565b820191906000526020600020905b81548152906001019060200180831161115357829003601f168201915b505050505081526020016001820160009054906101000a900473ffffffffffffffffffffffffffffffffffffffff1673ffffffffffffffffffffffffffffffffffffffff1673ffffffffffffffffffffffffffffffffffffffff1681526020016002820180546111df906123d4565b80601f016020809104026020016040519081016040528092919081815260200182805461120b906123d4565b80156112585780601f1061122d57610100808354040283529160200191611258565b820191906000526020600020905b81548152906001019060200180831161123b57829003601f168201915b50505050508152602001600382018054611271906123d4565b80601f016020809104026020016040519081016040528092919081815260200182805461129d906123d4565b80156112ea5780601f106112bf576101008083540402835291602001916112ea565b820191906000526020600020905b8154815290600101906020018083116112cd57829003601f168201915b505050505081526020016004820154815260200160058201548152602001600682018054611317906123d4565b80601f0160208091040260200160405190810160405280929190818152602001828054611343906123d4565b80156113905780601f1061136557610100808354040283529160200191611390565b820191906000526020600020905b81548152906001019060200180831161137357829003601f168201915b505050505081526020016007820160009054906101000a900460ff1615151515815250508383815181106113c7576113c66125cc565b5b602002602001018190525081806113dd906126d9565b9250505b8080600101915050610ff9565b50819350505050919050565b600073ffffffffffffffffffffffffffffffffffffffff166000876040516114229190612441565b908152602001604051809103902060010160009054906101000a900473ffffffffffffffffffffffffffffffffffffffff1673ffffffffffffffffffffffffffffffffffffffff16146114aa576040517f08c379a00000000000000000000000000000000000000000000000000000000081526004016114a19061276d565b60405180910390fd5b6040518061010001604052808781526020013373ffffffffffffffffffffffffffffffffffffffff1681526020018681526020018581526020018481526020018381526020018281526020016001151581525060008760405161150d9190612441565b908152602001604051809103902060008201518160000190816115309190612924565b5060208201518160010160006101000a81548173ffffffffffffffffffffffffffffffffffffffff021916908373ffffffffffffffffffffffffffffffffffffffff160217905550604082015181600201908161158d9190612924565b5060608201518160030190816115a39190612924565b506080820151816004015560a0820151816005015560c08201518160060190816115cd9190612924565b5060e08201518160070160006101000a81548160ff0219169083151502179055509050506001869080600181540180825580915050600190039060005260206000200160009091909190915090816116259190612924565b507f069cb91fa833d3431c6653e7b22e56faaf45b691bc696bc27c458b2f4b8f6abd863387604051611659939291906129f6565b60405180910390a1505050505050565b6000806000905060005b60018054905081101561177457600060018281548110611696576116956125cc565b5b906000526020600020016040516116ad9190612693565b908152602001604051809103902060070160009054906101000a900460ff1615611767576000600182815481106116e7576116e66125cc565b5b906000526020600020016040516116fe9190612693565b908152602001604051809103902060050154600060018381548110611726576117256125cc565b5b9060005260206000200160405161173d9190612693565b9081526020016040518091039020600401546117599190612a3b565b826117649190612a7d565b91505b8080600101915050611673565b508091505090565b6001818154811061178c57600080fd5b9060005260206000200160009150905080546117a7906123d4565b80601f01602080910402602001604051908101604052809291908181526020018280546117d3906123d4565b80156118205780601f106117f557610100808354040283529160200191611820565b820191906000526020600020905b81548152906001019060200180831161180357829003601f168201915b505050505081565b823373ffffffffffffffffffffffffffffffffffffffff166000826040516118509190612441565b908152602001604051809103902060010160009054906101000a900473ffffffffffffffffffffffffffffffffffffffff1673ffffffffffffffffffffffffffffffffffffffff16146118d8576040517f08c379a00000000000000000000000000000000000000000000000000000000081526004016118cf906124a4565b60405180910390fd5b6000846040516118e89190612441565b908152602001604051809103902060070160009054906101000a900460ff16611946576040517f08c379a000000000000000000000000000000000000000000000000000000000815260040161193d90612510565b60405180910390fd5b8115611989578260008560405161195d9190612441565b9081526020016040518091039020600401600082825461197d9190612a7d565b92505081905550611a26565b8260008560405161199a9190612441565b90815260200160405180910390206004015410156119ed576040517f08c379a00000000000000000000000000000000000000000000000000000000081526004016119e490612afd565b60405180910390fd5b826000856040516119fe9190612441565b90815260200160405180910390206004016000828254611a1e9190612b1d565b925050819055505b7f498e7ce6ce5e45befff15637525ba2260e33d95a48ed2632fde6dcc19c4f300384600086604051611a589190612441565b908152602001604051809103902060040154604051611a78929190612530565b60405180910390a150505050565b60405180610100016040528060608152602001600073ffffffffffffffffffffffffffffffffffffffff16815260200160608152602001606081526020016000815260200160008152602001606081526020016000151581525090565b6000604051905090565b600080fd5b600080fd5b600080fd5b600080fd5b6000601f19601f8301169050919050565b7f4e487b7100000000000000000000000000000000000000000000000000000000600052604160045260246000fd5b611b4a82611b01565b810181811067ffffffffffffffff82111715611b6957611b68611b12565b5b80604052505050565b6000611b7c611ae3565b9050611b888282611b41565b919050565b600067ffffffffffffffff821115611ba857611ba7611b12565b5b611bb182611b01565b9050602081019050919050565b82818337600083830152505050565b6000611be0611bdb84611b8d565b611b72565b905082815260208101848484011115611bfc57611bfb611afc565b5b611c07848285611bbe565b509392505050565b600082601f830112611c2457611c23611af7565b5b8135611c34848260208601611bcd565b91505092915050565b600060208284031215611c5357611c52611aed565b5b600082013567ffffffffffffffff811115611c7157611c70611af2565b5b611c7d84828501611c0f565b91505092915050565b600081519050919050565b600082825260208201905092915050565b60005b83811015611cc0578082015181840152602081019050611ca5565b60008484015250505050565b6000611cd782611c86565b611ce18185611c91565b9350611cf1818560208601611ca2565b611cfa81611b01565b840191505092915050565b600073ffffffffffffffffffffffffffffffffffffffff82169050919050565b6000611d3082611d05565b9050919050565b611d4081611d25565b82525050565b6000819050919050565b611d5981611d46565b82525050565b60008115159050919050565b611d7481611d5f565b82525050565b6000610100820190508181036000830152611d95818b611ccc565b9050611da4602083018a611d37565b8181036040830152611db68189611ccc565b90508181036060830152611dca8188611ccc565b9050611dd96080830187611d50565b611de660a0830186611d50565b81810360c0830152611df88185611ccc565b9050611e0760e0830184611d6b565b9998505050505050505050565b611e1d81611d46565b8114611e2857600080fd5b50565b600081359050611e3a81611e14565b92915050565b60008060408385031215611e5757611e56611aed565b5b600083013567ffffffffffffffff811115611e7557611e74611af2565b5b611e8185828601611c0f565b9250506020611e9285828601611e2b565b9150509250929050565b600082825260208201905092915050565b6000611eb882611c86565b611ec28185611e9c565b9350611ed2818560208601611ca2565b611edb81611b01565b840191505092915050565b611eef81611d25565b82525050565b611efe81611d46565b82525050565b611f0d81611d5f565b82525050565b6000610100830160008301518482036000860152611f318282611ead565b9150506020830151611f466020860182611ee6565b5060408301518482036040860152611f5e8282611ead565b91505060608301518482036060860152611f788282611ead565b9150506080830151611f8d6080860182611ef5565b5060a0830151611fa060a0860182611ef5565b5060c083015184820360c0860152611fb88282611ead565b91505060e0830151611fcd60e0860182611f04565b508091505092915050565b60006020820190508181036000830152611ff28184611f13565b905092915050565b600081519050919050565b600082825260208201905092915050565b6000819050602082019050919050565b60006101008301600083015184820360008601526120448282611ead565b91505060208301516120596020860182611ee6565b50604083015184820360408601526120718282611ead565b9150506060830151848203606086015261208b8282611ead565b91505060808301516120a06080860182611ef5565b5060a08301516120b360a0860182611ef5565b5060c083015184820360c08601526120cb8282611ead565b91505060e08301516120e060e0860182611f04565b508091505092915050565b60006120f78383612026565b905092915050565b6000602082019050919050565b600061211782611ffa565b6121218185612005565b93508360208202850161213385612016565b8060005b8581101561216f578484038952815161215085826120eb565b945061215b836120ff565b925060208a01995050600181019050612137565b50829750879550505050505092915050565b6000602082019050818103600083015261219b818461210c565b905092915050565b6000602082840312156121b9576121b8611aed565b5b60006121c784828501611e2b565b91505092915050565b60008060008060008060c087890312156121ed576121ec611aed565b5b600087013567ffffffffffffffff81111561220b5761220a611af2565b5b61221789828a01611c0f565b965050602087013567ffffffffffffffff81111561223857612237611af2565b5b61224489828a01611c0f565b955050604087013567ffffffffffffffff81111561226557612264611af2565b5b61227189828a01611c0f565b945050606061228289828a01611e2b565b935050608061229389828a01611e2b565b92505060a087013567ffffffffffffffff8111156122b4576122b3611af2565b5b6122c089828a01611c0f565b9150509295509295509295565b60006020820190506122e26000830184611d50565b92915050565b600060208201905081810360008301526123028184611ccc565b905092915050565b61231381611d5f565b811461231e57600080fd5b50565b6000813590506123308161230a565b92915050565b60008060006060848603121561234f5761234e611aed565b5b600084013567ffffffffffffffff81111561236d5761236c611af2565b5b61237986828701611c0f565b935050602061238a86828701611e2b565b925050604061239b86828701612321565b9150509250925092565b7f4e487b7100000000000000000000000000000000000000000000000000000000600052602260045260246000fd5b600060028204905060018216806123ec57607f821691505b6020821081036123ff576123fe6123a5565b5b50919050565b600081905092915050565b600061241b82611c86565b6124258185612405565b9350612435818560208601611ca2565b80840191505092915050565b600061244d8284612410565b915081905092915050565b7f4e6f742070726f64756374206f776e6572000000000000000000000000000000600082015250565b600061248e601183611c91565b915061249982612458565b602082019050919050565b600060208201905081810360008301526124bd81612481565b9050919050565b7f50726f6475637420697320646973636f6e74696e756564000000000000000000600082015250565b60006124fa601783611c91565b9150612505826124c4565b602082019050919050565b60006020820190508181036000830152612529816124ed565b9050919050565b6000604082019050818103600083015261254a8185611ccc565b90506125596020830184611d50565b9392505050565b7f50726f64756374206e6f7420666f756e64000000000000000000000000000000600082015250565b6000612596601183611c91565b91506125a182612560565b602082019050919050565b600060208201905081810360008301526125c581612589565b9050919050565b7f4e487b7100000000000000000000000000000000000000000000000000000000600052603260045260246000fd5b60008190508160005260206000209050919050565b6000815461261d816123d4565b6126278186612405565b9450600182166000811461264257600181146126575761268a565b60ff198316865281151582028601935061268a565b612660856125fb565b60005b8381101561268257815481890152600182019150602081019050612663565b838801955050505b50505092915050565b600061269f8284612610565b915081905092915050565b7f4e487b7100000000000000000000000000000000000000000000000000000000600052601160045260246000fd5b60006126e482611d46565b91507fffffffffffffffffffffffffffffffffffffffffffffffffffffffffffffffff8203612716576127156126aa565b5b600182019050919050565b7f50726f6475637420616c72656164792065786973747300000000000000000000600082015250565b6000612757601683611c91565b915061276282612721565b602082019050919050565b600060208201905081810360008301526127868161274a565b9050919050565b60006020601f8301049050919050565b600082821b905092915050565b6000600883026127da7fffffffffffffffffffffffffffffffffffffffffffffffffffffffffffffffff8261279d565b6127e4868361279d565b95508019841693508086168417925050509392505050565b6000819050919050565b600061282161281c61281784611d46565b6127fc565b611d46565b9050919050565b6000819050919050565b61283b83612806565b61284f61284782612828565b8484546127aa565b825550505050565b600090565b612864612857565b61286f818484612832565b505050565b5b818110156128935761288860008261285c565b600181019050612875565b5050565b601f8211156128d8576128a9816125fb565b6128b28461278d565b810160208510156128c1578190505b6128d56128cd8561278d565b830182612874565b50505b505050565b600082821c905092915050565b60006128fb600019846008026128dd565b1980831691505092915050565b600061291483836128ea565b9150826002028217905092915050565b61292d82611c86565b67ffffffffffffffff81111561294657612945611b12565b5b61295082546123d4565b61295b828285612897565b600060209050601f83116001811461298e576000841561297c578287015190505b6129868582612908565b8655506129ee565b601f19841661299c866125fb565b60005b828110156129c45784890151825560018201915060208501945060208101905061299f565b868310156129e157848901516129dd601f8916826128ea565b8355505b6001600288020188555050505b505050505050565b60006060820190508181036000830152612a108186611ccc565b9050612a1f6020830185611d37565b8181036040830152612a318184611ccc565b9050949350505050565b6000612a4682611d46565b9150612a5183611d46565b9250828202612a5f81611d46565b91508282048414831517612a7657612a756126aa565b5b5092915050565b6000612a8882611d46565b9150612a9383611d46565b9250828201905080821115612aab57612aaa6126aa565b5b92915050565b7f496e73756666696369656e742073746f636b0000000000000000000000000000600082015250565b6000612ae7601283611c91565b9150612af282612ab1565b602082019050919050565b60006020820190508181036000830152612b1681612ada565b9050919050565b6000612b2882611d46565b9150612b3383611d46565b9250828203905081811115612b4b57612b4a6126aa565b5b9291505056fea264697066735822122088d89b283866fbbc8885c9d27bbb83b51d48d09d686d15bac8befeffe230e92264736f6c634300081c0033",
  "linkReferences": {},
  "deployedLinkReferences": {}
}